{
  "contractName": "mintContract",
  "abi": [
    {
      "inputs": [],
      "stateMutability": "nonpayable",
      "type": "constructor"
    },
    {
      "anonymous": false,
      "inputs": [
        {
          "indexed": true,
          "internalType": "address",
          "name": "owner",
          "type": "address"
        },
        {
          "indexed": true,
          "internalType": "address",
          "name": "approved",
          "type": "address"
        },
        {
          "indexed": true,
          "internalType": "uint256",
          "name": "tokenId",
          "type": "uint256"
        }
      ],
      "name": "Approval",
      "type": "event"
    },
    {
      "anonymous": false,
      "inputs": [
        {
          "indexed": true,
          "internalType": "address",
          "name": "owner",
          "type": "address"
        },
        {
          "indexed": true,
          "internalType": "address",
          "name": "operator",
          "type": "address"
        },
        {
          "indexed": false,
          "internalType": "bool",
          "name": "approved",
          "type": "bool"
        }
      ],
      "name": "ApprovalForAll",
      "type": "event"
    },
    {
      "anonymous": false,
      "inputs": [
        {
          "indexed": true,
          "internalType": "address",
          "name": "previousOwner",
          "type": "address"
        },
        {
          "indexed": true,
          "internalType": "address",
          "name": "newOwner",
          "type": "address"
        }
      ],
      "name": "OwnershipTransferred",
      "type": "event"
    },
    {
      "anonymous": false,
      "inputs": [
        {
          "indexed": true,
          "internalType": "address",
          "name": "from",
          "type": "address"
        },
        {
          "indexed": true,
          "internalType": "address",
          "name": "to",
          "type": "address"
        },
        {
          "indexed": true,
          "internalType": "uint256",
          "name": "tokenId",
          "type": "uint256"
        }
      ],
      "name": "Transfer",
      "type": "event"
    },
    {
      "inputs": [
        {
          "internalType": "address",
          "name": "to",
          "type": "address"
        },
        {
          "internalType": "uint256",
          "name": "tokenId",
          "type": "uint256"
        }
      ],
      "name": "approve",
      "outputs": [],
      "stateMutability": "nonpayable",
      "type": "function"
    },
    {
      "inputs": [
        {
          "internalType": "address",
          "name": "owner",
          "type": "address"
        }
      ],
      "name": "balanceOf",
      "outputs": [
        {
          "internalType": "uint256",
          "name": "",
          "type": "uint256"
        }
      ],
      "stateMutability": "view",
      "type": "function",
      "constant": true
    },
    {
      "inputs": [
        {
          "internalType": "uint256",
          "name": "tokenId",
          "type": "uint256"
        }
      ],
      "name": "getApproved",
      "outputs": [
        {
          "internalType": "address",
          "name": "",
          "type": "address"
        }
      ],
      "stateMutability": "view",
      "type": "function",
      "constant": true
    },
    {
      "inputs": [
        {
          "internalType": "address",
          "name": "owner",
          "type": "address"
        },
        {
          "internalType": "address",
          "name": "operator",
          "type": "address"
        }
      ],
      "name": "isApprovedForAll",
      "outputs": [
        {
          "internalType": "bool",
          "name": "",
          "type": "bool"
        }
      ],
      "stateMutability": "view",
      "type": "function",
      "constant": true
    },
    {
      "inputs": [],
      "name": "name",
      "outputs": [
        {
          "internalType": "string",
          "name": "",
          "type": "string"
        }
      ],
      "stateMutability": "view",
      "type": "function",
      "constant": true
    },
    {
      "inputs": [],
      "name": "owner",
      "outputs": [
        {
          "internalType": "address",
          "name": "",
          "type": "address"
        }
      ],
      "stateMutability": "view",
      "type": "function",
      "constant": true
    },
    {
      "inputs": [
        {
          "internalType": "uint256",
          "name": "tokenId",
          "type": "uint256"
        }
      ],
      "name": "ownerOf",
      "outputs": [
        {
          "internalType": "address",
          "name": "",
          "type": "address"
        }
      ],
      "stateMutability": "view",
      "type": "function",
      "constant": true
    },
    {
      "inputs": [],
      "name": "renounceOwnership",
      "outputs": [],
      "stateMutability": "nonpayable",
      "type": "function"
    },
    {
      "inputs": [
        {
          "internalType": "address",
          "name": "from",
          "type": "address"
        },
        {
          "internalType": "address",
          "name": "to",
          "type": "address"
        },
        {
          "internalType": "uint256",
          "name": "tokenId",
          "type": "uint256"
        }
      ],
      "name": "safeTransferFrom",
      "outputs": [],
      "stateMutability": "nonpayable",
      "type": "function"
    },
    {
      "inputs": [
        {
          "internalType": "address",
          "name": "from",
          "type": "address"
        },
        {
          "internalType": "address",
          "name": "to",
          "type": "address"
        },
        {
          "internalType": "uint256",
          "name": "tokenId",
          "type": "uint256"
        },
        {
          "internalType": "bytes",
          "name": "data",
          "type": "bytes"
        }
      ],
      "name": "safeTransferFrom",
      "outputs": [],
      "stateMutability": "nonpayable",
      "type": "function"
    },
    {
      "inputs": [
        {
          "internalType": "address",
          "name": "operator",
          "type": "address"
        },
        {
          "internalType": "bool",
          "name": "approved",
          "type": "bool"
        }
      ],
      "name": "setApprovalForAll",
      "outputs": [],
      "stateMutability": "nonpayable",
      "type": "function"
    },
    {
      "inputs": [
        {
          "internalType": "bytes4",
          "name": "interfaceId",
          "type": "bytes4"
        }
      ],
      "name": "supportsInterface",
      "outputs": [
        {
          "internalType": "bool",
          "name": "",
          "type": "bool"
        }
      ],
      "stateMutability": "view",
      "type": "function",
      "constant": true
    },
    {
      "inputs": [],
      "name": "symbol",
      "outputs": [
        {
          "internalType": "string",
          "name": "",
          "type": "string"
        }
      ],
      "stateMutability": "view",
      "type": "function",
      "constant": true
    },
    {
      "inputs": [
        {
          "internalType": "uint256",
          "name": "tokenId",
          "type": "uint256"
        }
      ],
      "name": "tokenURI",
      "outputs": [
        {
          "internalType": "string",
          "name": "",
          "type": "string"
        }
      ],
      "stateMutability": "view",
      "type": "function",
      "constant": true
    },
    {
      "inputs": [
        {
          "internalType": "address",
          "name": "from",
          "type": "address"
        },
        {
          "internalType": "address",
          "name": "to",
          "type": "address"
        },
        {
          "internalType": "uint256",
          "name": "tokenId",
          "type": "uint256"
        }
      ],
      "name": "transferFrom",
      "outputs": [],
      "stateMutability": "nonpayable",
      "type": "function"
    },
    {
      "inputs": [
        {
          "internalType": "address",
          "name": "newOwner",
          "type": "address"
        }
      ],
      "name": "transferOwnership",
      "outputs": [],
      "stateMutability": "nonpayable",
      "type": "function"
    },
    {
      "inputs": [
        {
          "internalType": "string",
          "name": "tokenURI",
          "type": "string"
        }
      ],
      "name": "mintNFT",
      "outputs": [
        {
          "internalType": "uint256",
          "name": "",
          "type": "uint256"
        }
      ],
      "stateMutability": "nonpayable",
      "type": "function"
    }
  ],
  "bytecode": "0x60806040523480156200001157600080fd5b506040518060400160405280600581526020017f4d794e46540000000000000000000000000000000000000000000000000000008152506040518060400160405280600381526020017f4e4654000000000000000000000000000000000000000000000000000000000081525081600090816200008f919062000412565b508060019081620000a1919062000412565b505050620000c4620000b8620000ca60201b60201c565b620000d260201b60201c565b620004f9565b600033905090565b6000600760009054906101000a900473ffffffffffffffffffffffffffffffffffffffff16905081600760006101000a81548173ffffffffffffffffffffffffffffffffffffffff021916908373ffffffffffffffffffffffffffffffffffffffff1602179055508173ffffffffffffffffffffffffffffffffffffffff168173ffffffffffffffffffffffffffffffffffffffff167f8be0079c531659141344cd1fd0a4f28419497f9722a3daafe3b4186f6b6457e060405160405180910390a35050565b600081519050919050565b7f4e487b7100000000000000000000000000000000000000000000000000000000600052604160045260246000fd5b7f4e487b7100000000000000000000000000000000000000000000000000000000600052602260045260246000fd5b600060028204905060018216806200021a57607f821691505b60208210810362000230576200022f620001d2565b5b50919050565b60008190508160005260206000209050919050565b60006020601f8301049050919050565b600082821b905092915050565b6000600883026200029a7fffffffffffffffffffffffffffffffffffffffffffffffffffffffffffffffff826200025b565b620002a686836200025b565b95508019841693508086168417925050509392505050565b6000819050919050565b6000819050919050565b6000620002f3620002ed620002e784620002be565b620002c8565b620002be565b9050919050565b6000819050919050565b6200030f83620002d2565b620003276200031e82620002fa565b84845462000268565b825550505050565b600090565b6200033e6200032f565b6200034b81848462000304565b505050565b5b8181101562000373576200036760008262000334565b60018101905062000351565b5050565b601f821115620003c2576200038c8162000236565b62000397846200024b565b81016020851015620003a7578190505b620003bf620003b6856200024b565b83018262000350565b50505b505050565b600082821c905092915050565b6000620003e760001984600802620003c7565b1980831691505092915050565b6000620004028383620003d4565b9150826002028217905092915050565b6200041d8262000198565b67ffffffffffffffff811115620004395762000438620001a3565b5b62000445825462000201565b6200045282828562000377565b600060209050601f8311600181146200048a576000841562000475578287015190505b620004818582620003f4565b865550620004f1565b601f1984166200049a8662000236565b60005b82811015620004c4578489015182556001820191506020850194506020810190506200049d565b86831015620004e45784890151620004e0601f891682620003d4565b8355505b6001600288020188555050505b505050505050565b612d9380620005096000396000f3fe608060405234801561001057600080fd5b506004361061010b5760003560e01c8063715018a6116100a2578063b88d4fde11610071578063b88d4fde146102a4578063c87b56dd146102c0578063e985e9c5146102f0578063f2fde38b14610320578063fb37e8831461033c5761010b565b8063715018a6146102425780638da5cb5b1461024c57806395d89b411461026a578063a22cb465146102885761010b565b806323b872dd116100de57806323b872dd146101aa57806342842e0e146101c65780636352211e146101e257806370a08231146102125761010b565b806301ffc9a71461011057806306fdde0314610140578063081812fc1461015e578063095ea7b31461018e575b600080fd5b61012a60048036038101906101259190611a27565b61036c565b6040516101379190611a6f565b60405180910390f35b61014861044e565b6040516101559190611b1a565b60405180910390f35b61017860048036038101906101739190611b72565b6104e0565b6040516101859190611be0565b60405180910390f35b6101a860048036038101906101a39190611c27565b610526565b005b6101c460048036038101906101bf9190611c67565b61063d565b005b6101e060048036038101906101db9190611c67565b61069d565b005b6101fc60048036038101906101f79190611b72565b6106bd565b6040516102099190611be0565b60405180910390f35b61022c60048036038101906102279190611cba565b61076e565b6040516102399190611cf6565b60405180910390f35b61024a610825565b005b610254610839565b6040516102619190611be0565b60405180910390f35b610272610863565b60405161027f9190611b1a565b60405180910390f35b6102a2600480360381019061029d9190611d3d565b6108f5565b005b6102be60048036038101906102b99190611eb2565b61090b565b005b6102da60048036038101906102d59190611b72565b61096d565b6040516102e79190611b1a565b60405180910390f35b61030a60048036038101906103059190611f35565b610a7f565b6040516103179190611a6f565b60405180910390f35b61033a60048036038101906103359190611cba565b610b13565b005b61035660048036038101906103519190612016565b610b96565b6040516103639190611cf6565b60405180910390f35b60007f80ac58cd000000000000000000000000000000000000000000000000000000007bffffffffffffffffffffffffffffffffffffffffffffffffffffffff1916827bffffffffffffffffffffffffffffffffffffffffffffffffffffffff1916148061043757507f5b5e139f000000000000000000000000000000000000000000000000000000007bffffffffffffffffffffffffffffffffffffffffffffffffffffffff1916827bffffffffffffffffffffffffffffffffffffffffffffffffffffffff1916145b80610447575061044682610bd5565b5b9050919050565b60606000805461045d9061208e565b80601f01602080910402602001604051908101604052809291908181526020018280546104899061208e565b80156104d65780601f106104ab576101008083540402835291602001916104d6565b820191906000526020600020905b8154815290600101906020018083116104b957829003601f168201915b5050505050905090565b60006104eb82610c3f565b6004600083815260200190815260200160002060009054906101000a900473ffffffffffffffffffffffffffffffffffffffff169050919050565b6000610531826106bd565b90508073ffffffffffffffffffffffffffffffffffffffff168373ffffffffffffffffffffffffffffffffffffffff16036105a1576040517f08c379a000000000000000000000000000000000000000000000000000000000815260040161059890612131565b60405180910390fd5b8073ffffffffffffffffffffffffffffffffffffffff166105c0610c8a565b73ffffffffffffffffffffffffffffffffffffffff1614806105ef57506105ee816105e9610c8a565b610a7f565b5b61062e576040517f08c379a0000000000000000000000000000000000000000000000000000000008152600401610625906121c3565b60405180910390fd5b6106388383610c92565b505050565b61064e610648610c8a565b82610d4b565b61068d576040517f08c379a000000000000000000000000000000000000000000000000000000000815260040161068490612255565b60405180910390fd5b610698838383610de0565b505050565b6106b88383836040518060200160405280600081525061090b565b505050565b6000806002600084815260200190815260200160002060009054906101000a900473ffffffffffffffffffffffffffffffffffffffff169050600073ffffffffffffffffffffffffffffffffffffffff168173ffffffffffffffffffffffffffffffffffffffff1603610765576040517f08c379a000000000000000000000000000000000000000000000000000000000815260040161075c906122c1565b60405180910390fd5b80915050919050565b60008073ffffffffffffffffffffffffffffffffffffffff168273ffffffffffffffffffffffffffffffffffffffff16036107de576040517f08c379a00000000000000000000000000000000000000000000000000000000081526004016107d590612353565b60405180910390fd5b600360008373ffffffffffffffffffffffffffffffffffffffff1673ffffffffffffffffffffffffffffffffffffffff168152602001908152602001600020549050919050565b61082d611046565b61083760006110c4565b565b6000600760009054906101000a900473ffffffffffffffffffffffffffffffffffffffff16905090565b6060600180546108729061208e565b80601f016020809104026020016040519081016040528092919081815260200182805461089e9061208e565b80156108eb5780601f106108c0576101008083540402835291602001916108eb565b820191906000526020600020905b8154815290600101906020018083116108ce57829003601f168201915b5050505050905090565b610907610900610c8a565b838361118a565b5050565b61091c610916610c8a565b83610d4b565b61095b576040517f08c379a000000000000000000000000000000000000000000000000000000000815260040161095290612255565b60405180910390fd5b610967848484846112f6565b50505050565b606061097882610c3f565b60006006600084815260200190815260200160002080546109989061208e565b80601f01602080910402602001604051908101604052809291908181526020018280546109c49061208e565b8015610a115780601f106109e657610100808354040283529160200191610a11565b820191906000526020600020905b8154815290600101906020018083116109f457829003601f168201915b505050505090506000610a22611352565b90506000815103610a37578192505050610a7a565b600082511115610a6c578082604051602001610a549291906123af565b60405160208183030381529060405292505050610a7a565b610a7584611369565b925050505b919050565b6000600560008473ffffffffffffffffffffffffffffffffffffffff1673ffffffffffffffffffffffffffffffffffffffff16815260200190815260200160002060008373ffffffffffffffffffffffffffffffffffffffff1673ffffffffffffffffffffffffffffffffffffffff16815260200190815260200160002060009054906101000a900460ff16905092915050565b610b1b611046565b600073ffffffffffffffffffffffffffffffffffffffff168173ffffffffffffffffffffffffffffffffffffffff1603610b8a576040517f08c379a0000000000000000000000000000000000000000000000000000000008152600401610b8190612445565b60405180910390fd5b610b93816110c4565b50565b6000610ba0611046565b610baa60086113d1565b6000610bb660086113e7565b9050610bc233826113f5565b610bcc81846115ce565b80915050919050565b60007f01ffc9a7000000000000000000000000000000000000000000000000000000007bffffffffffffffffffffffffffffffffffffffffffffffffffffffff1916827bffffffffffffffffffffffffffffffffffffffffffffffffffffffff1916149050919050565b610c488161163b565b610c87576040517f08c379a0000000000000000000000000000000000000000000000000000000008152600401610c7e906122c1565b60405180910390fd5b50565b600033905090565b816004600083815260200190815260200160002060006101000a81548173ffffffffffffffffffffffffffffffffffffffff021916908373ffffffffffffffffffffffffffffffffffffffff160217905550808273ffffffffffffffffffffffffffffffffffffffff16610d05836106bd565b73ffffffffffffffffffffffffffffffffffffffff167f8c5be1e5ebec7d5bd14f71427d1e84f3dd0314c0f7b2291e5b200ac8c7c3b92560405160405180910390a45050565b600080610d57836106bd565b90508073ffffffffffffffffffffffffffffffffffffffff168473ffffffffffffffffffffffffffffffffffffffff161480610d995750610d988185610a7f565b5b80610dd757508373ffffffffffffffffffffffffffffffffffffffff16610dbf846104e0565b73ffffffffffffffffffffffffffffffffffffffff16145b91505092915050565b8273ffffffffffffffffffffffffffffffffffffffff16610e00826106bd565b73ffffffffffffffffffffffffffffffffffffffff1614610e56576040517f08c379a0000000000000000000000000000000000000000000000000000000008152600401610e4d906124d7565b60405180910390fd5b600073ffffffffffffffffffffffffffffffffffffffff168273ffffffffffffffffffffffffffffffffffffffff1603610ec5576040517f08c379a0000000000000000000000000000000000000000000000000000000008152600401610ebc90612569565b60405180910390fd5b610ed08383836116a7565b610edb600082610c92565b6001600360008573ffffffffffffffffffffffffffffffffffffffff1673ffffffffffffffffffffffffffffffffffffffff1681526020019081526020016000206000828254610f2b91906125b8565b925050819055506001600360008473ffffffffffffffffffffffffffffffffffffffff1673ffffffffffffffffffffffffffffffffffffffff1681526020019081526020016000206000828254610f8291906125ec565b92505081905550816002600083815260200190815260200160002060006101000a81548173ffffffffffffffffffffffffffffffffffffffff021916908373ffffffffffffffffffffffffffffffffffffffff160217905550808273ffffffffffffffffffffffffffffffffffffffff168473ffffffffffffffffffffffffffffffffffffffff167fddf252ad1be2c89b69c2b068fc378daa952ba7f163c4a11628f55a4df523b3ef60405160405180910390a46110418383836116ac565b505050565b61104e610c8a565b73ffffffffffffffffffffffffffffffffffffffff1661106c610839565b73ffffffffffffffffffffffffffffffffffffffff16146110c2576040517f08c379a00000000000000000000000000000000000000000000000000000000081526004016110b99061266c565b60405180910390fd5b565b6000600760009054906101000a900473ffffffffffffffffffffffffffffffffffffffff16905081600760006101000a81548173ffffffffffffffffffffffffffffffffffffffff021916908373ffffffffffffffffffffffffffffffffffffffff1602179055508173ffffffffffffffffffffffffffffffffffffffff168173ffffffffffffffffffffffffffffffffffffffff167f8be0079c531659141344cd1fd0a4f28419497f9722a3daafe3b4186f6b6457e060405160405180910390a35050565b8173ffffffffffffffffffffffffffffffffffffffff168373ffffffffffffffffffffffffffffffffffffffff16036111f8576040517f08c379a00000000000000000000000000000000000000000000000000000000081526004016111ef906126d8565b60405180910390fd5b80600560008573ffffffffffffffffffffffffffffffffffffffff1673ffffffffffffffffffffffffffffffffffffffff16815260200190815260200160002060008473ffffffffffffffffffffffffffffffffffffffff1673ffffffffffffffffffffffffffffffffffffffff16815260200190815260200160002060006101000a81548160ff0219169083151502179055508173ffffffffffffffffffffffffffffffffffffffff168373ffffffffffffffffffffffffffffffffffffffff167f17307eab39ab6107e8899845ad3d59bd9653f200f220920489ca2b5937696c31836040516112e99190611a6f565b60405180910390a3505050565b611301848484610de0565b61130d848484846116b1565b61134c576040517f08c379a00000000000000000000000000000000000000000000000000000000081526004016113439061276a565b60405180910390fd5b50505050565b606060405180602001604052806000815250905090565b606061137482610c3f565b600061137e611352565b9050600081511161139e57604051806020016040528060008152506113c9565b806113a884611838565b6040516020016113b99291906123af565b6040516020818303038152906040525b915050919050565b6001816000016000828254019250508190555050565b600081600001549050919050565b600073ffffffffffffffffffffffffffffffffffffffff168273ffffffffffffffffffffffffffffffffffffffff1603611464576040517f08c379a000000000000000000000000000000000000000000000000000000000815260040161145b906127d6565b60405180910390fd5b61146d8161163b565b156114ad576040517f08c379a00000000000000000000000000000000000000000000000000000000081526004016114a490612842565b60405180910390fd5b6114b9600083836116a7565b6001600360008473ffffffffffffffffffffffffffffffffffffffff1673ffffffffffffffffffffffffffffffffffffffff168152602001908152602001600020600082825461150991906125ec565b92505081905550816002600083815260200190815260200160002060006101000a81548173ffffffffffffffffffffffffffffffffffffffff021916908373ffffffffffffffffffffffffffffffffffffffff160217905550808273ffffffffffffffffffffffffffffffffffffffff16600073ffffffffffffffffffffffffffffffffffffffff167fddf252ad1be2c89b69c2b068fc378daa952ba7f163c4a11628f55a4df523b3ef60405160405180910390a46115ca600083836116ac565b5050565b6115d78261163b565b611616576040517f08c379a000000000000000000000000000000000000000000000000000000000815260040161160d906128d4565b60405180910390fd5b806006600084815260200190815260200160002090816116369190612aa0565b505050565b60008073ffffffffffffffffffffffffffffffffffffffff166002600084815260200190815260200160002060009054906101000a900473ffffffffffffffffffffffffffffffffffffffff1673ffffffffffffffffffffffffffffffffffffffff1614159050919050565b505050565b505050565b60006116d28473ffffffffffffffffffffffffffffffffffffffff16611998565b1561182b578373ffffffffffffffffffffffffffffffffffffffff1663150b7a026116fb610c8a565b8786866040518563ffffffff1660e01b815260040161171d9493929190612bc7565b6020604051808303816000875af192505050801561175957506040513d601f19601f820116820180604052508101906117569190612c28565b60015b6117db573d8060008114611789576040519150601f19603f3d011682016040523d82523d6000602084013e61178e565b606091505b5060008151036117d3576040517f08c379a00000000000000000000000000000000000000000000000000000000081526004016117ca9061276a565b60405180910390fd5b805181602001fd5b63150b7a0260e01b7bffffffffffffffffffffffffffffffffffffffffffffffffffffffff1916817bffffffffffffffffffffffffffffffffffffffffffffffffffffffff191614915050611830565b600190505b949350505050565b60606000820361187f576040518060400160405280600181526020017f30000000000000000000000000000000000000000000000000000000000000008152509050611993565b600082905060005b600082146118b157808061189a90612c55565b915050600a826118aa9190612ccc565b9150611887565b60008167ffffffffffffffff8111156118cd576118cc611d87565b5b6040519080825280601f01601f1916602001820160405280156118ff5781602001600182028036833780820191505090505b5090505b6000851461198c5760018261191891906125b8565b9150600a856119279190612cfd565b603061193391906125ec565b60f81b81838151811061194957611948612d2e565b5b60200101907effffffffffffffffffffffffffffffffffffffffffffffffffffffffffffff1916908160001a905350600a856119859190612ccc565b9450611903565b8093505050505b919050565b6000808273ffffffffffffffffffffffffffffffffffffffff163b119050919050565b6000604051905090565b600080fd5b600080fd5b60007fffffffff0000000000000000000000000000000000000000000000000000000082169050919050565b611a04816119cf565b8114611a0f57600080fd5b50565b600081359050611a21816119fb565b92915050565b600060208284031215611a3d57611a3c6119c5565b5b6000611a4b84828501611a12565b91505092915050565b60008115159050919050565b611a6981611a54565b82525050565b6000602082019050611a846000830184611a60565b92915050565b600081519050919050565b600082825260208201905092915050565b60005b83811015611ac4578082015181840152602081019050611aa9565b60008484015250505050565b6000601f19601f8301169050919050565b6000611aec82611a8a565b611af68185611a95565b9350611b06818560208601611aa6565b611b0f81611ad0565b840191505092915050565b60006020820190508181036000830152611b348184611ae1565b905092915050565b6000819050919050565b611b4f81611b3c565b8114611b5a57600080fd5b50565b600081359050611b6c81611b46565b92915050565b600060208284031215611b8857611b876119c5565b5b6000611b9684828501611b5d565b91505092915050565b600073ffffffffffffffffffffffffffffffffffffffff82169050919050565b6000611bca82611b9f565b9050919050565b611bda81611bbf565b82525050565b6000602082019050611bf56000830184611bd1565b92915050565b611c0481611bbf565b8114611c0f57600080fd5b50565b600081359050611c2181611bfb565b92915050565b60008060408385031215611c3e57611c3d6119c5565b5b6000611c4c85828601611c12565b9250506020611c5d85828601611b5d565b9150509250929050565b600080600060608486031215611c8057611c7f6119c5565b5b6000611c8e86828701611c12565b9350506020611c9f86828701611c12565b9250506040611cb086828701611b5d565b9150509250925092565b600060208284031215611cd057611ccf6119c5565b5b6000611cde84828501611c12565b91505092915050565b611cf081611b3c565b82525050565b6000602082019050611d0b6000830184611ce7565b92915050565b611d1a81611a54565b8114611d2557600080fd5b50565b600081359050611d3781611d11565b92915050565b60008060408385031215611d5457611d536119c5565b5b6000611d6285828601611c12565b9250506020611d7385828601611d28565b9150509250929050565b600080fd5b600080fd5b7f4e487b7100000000000000000000000000000000000000000000000000000000600052604160045260246000fd5b611dbf82611ad0565b810181811067ffffffffffffffff82111715611dde57611ddd611d87565b5b80604052505050565b6000611df16119bb565b9050611dfd8282611db6565b919050565b600067ffffffffffffffff821115611e1d57611e1c611d87565b5b611e2682611ad0565b9050602081019050919050565b82818337600083830152505050565b6000611e55611e5084611e02565b611de7565b905082815260208101848484011115611e7157611e70611d82565b5b611e7c848285611e33565b509392505050565b600082601f830112611e9957611e98611d7d565b5b8135611ea9848260208601611e42565b91505092915050565b60008060008060808587031215611ecc57611ecb6119c5565b5b6000611eda87828801611c12565b9450506020611eeb87828801611c12565b9350506040611efc87828801611b5d565b925050606085013567ffffffffffffffff811115611f1d57611f1c6119ca565b5b611f2987828801611e84565b91505092959194509250565b60008060408385031215611f4c57611f4b6119c5565b5b6000611f5a85828601611c12565b9250506020611f6b85828601611c12565b9150509250929050565b600067ffffffffffffffff821115611f9057611f8f611d87565b5b611f9982611ad0565b9050602081019050919050565b6000611fb9611fb484611f75565b611de7565b905082815260208101848484011115611fd557611fd4611d82565b5b611fe0848285611e33565b509392505050565b600082601f830112611ffd57611ffc611d7d565b5b813561200d848260208601611fa6565b91505092915050565b60006020828403121561202c5761202b6119c5565b5b600082013567ffffffffffffffff81111561204a576120496119ca565b5b61205684828501611fe8565b91505092915050565b7f4e487b7100000000000000000000000000000000000000000000000000000000600052602260045260246000fd5b600060028204905060018216806120a657607f821691505b6020821081036120b9576120b861205f565b5b50919050565b7f4552433732313a20617070726f76616c20746f2063757272656e74206f776e6560008201527f7200000000000000000000000000000000000000000000000000000000000000602082015250565b600061211b602183611a95565b9150612126826120bf565b604082019050919050565b6000602082019050818103600083015261214a8161210e565b9050919050565b7f4552433732313a20617070726f76652063616c6c6572206973206e6f7420746f60008201527f6b656e206f776e6572206e6f7220617070726f76656420666f7220616c6c0000602082015250565b60006121ad603e83611a95565b91506121b882612151565b604082019050919050565b600060208201905081810360008301526121dc816121a0565b9050919050565b7f4552433732313a2063616c6c6572206973206e6f7420746f6b656e206f776e6560008201527f72206e6f7220617070726f766564000000000000000000000000000000000000602082015250565b600061223f602e83611a95565b915061224a826121e3565b604082019050919050565b6000602082019050818103600083015261226e81612232565b9050919050565b7f4552433732313a20696e76616c696420746f6b656e2049440000000000000000600082015250565b60006122ab601883611a95565b91506122b682612275565b602082019050919050565b600060208201905081810360008301526122da8161229e565b9050919050565b7f4552433732313a2061646472657373207a65726f206973206e6f74206120766160008201527f6c6964206f776e65720000000000000000000000000000000000000000000000602082015250565b600061233d602983611a95565b9150612348826122e1565b604082019050919050565b6000602082019050818103600083015261236c81612330565b9050919050565b600081905092915050565b600061238982611a8a565b6123938185612373565b93506123a3818560208601611aa6565b80840191505092915050565b60006123bb828561237e565b91506123c7828461237e565b91508190509392505050565b7f4f776e61626c653a206e6577206f776e657220697320746865207a65726f206160008201527f6464726573730000000000000000000000000000000000000000000000000000602082015250565b600061242f602683611a95565b915061243a826123d3565b604082019050919050565b6000602082019050818103600083015261245e81612422565b9050919050565b7f4552433732313a207472616e736665722066726f6d20696e636f72726563742060008201527f6f776e6572000000000000000000000000000000000000000000000000000000602082015250565b60006124c1602583611a95565b91506124cc82612465565b604082019050919050565b600060208201905081810360008301526124f0816124b4565b9050919050565b7f4552433732313a207472616e7366657220746f20746865207a65726f2061646460008201527f7265737300000000000000000000000000000000000000000000000000000000602082015250565b6000612553602483611a95565b915061255e826124f7565b604082019050919050565b6000602082019050818103600083015261258281612546565b9050919050565b7f4e487b7100000000000000000000000000000000000000000000000000000000600052601160045260246000fd5b60006125c382611b3c565b91506125ce83611b3c565b92508282039050818111156125e6576125e5612589565b5b92915050565b60006125f782611b3c565b915061260283611b3c565b925082820190508082111561261a57612619612589565b5b92915050565b7f4f776e61626c653a2063616c6c6572206973206e6f7420746865206f776e6572600082015250565b6000612656602083611a95565b915061266182612620565b602082019050919050565b6000602082019050818103600083015261268581612649565b9050919050565b7f4552433732313a20617070726f766520746f2063616c6c657200000000000000600082015250565b60006126c2601983611a95565b91506126cd8261268c565b602082019050919050565b600060208201905081810360008301526126f1816126b5565b9050919050565b7f4552433732313a207472616e7366657220746f206e6f6e20455243373231526560008201527f63656976657220696d706c656d656e7465720000000000000000000000000000602082015250565b6000612754603283611a95565b915061275f826126f8565b604082019050919050565b6000602082019050818103600083015261278381612747565b9050919050565b7f4552433732313a206d696e7420746f20746865207a65726f2061646472657373600082015250565b60006127c0602083611a95565b91506127cb8261278a565b602082019050919050565b600060208201905081810360008301526127ef816127b3565b9050919050565b7f4552433732313a20746f6b656e20616c7265616479206d696e74656400000000600082015250565b600061282c601c83611a95565b9150612837826127f6565b602082019050919050565b6000602082019050818103600083015261285b8161281f565b9050919050565b7f45524337323155524953746f726167653a2055524920736574206f66206e6f6e60008201527f6578697374656e7420746f6b656e000000000000000000000000000000000000602082015250565b60006128be602e83611a95565b91506128c982612862565b604082019050919050565b600060208201905081810360008301526128ed816128b1565b9050919050565b60008190508160005260206000209050919050565b60006020601f8301049050919050565b600082821b905092915050565b6000600883026129567fffffffffffffffffffffffffffffffffffffffffffffffffffffffffffffffff82612919565b6129608683612919565b95508019841693508086168417925050509392505050565b6000819050919050565b600061299d61299861299384611b3c565b612978565b611b3c565b9050919050565b6000819050919050565b6129b783612982565b6129cb6129c3826129a4565b848454612926565b825550505050565b600090565b6129e06129d3565b6129eb8184846129ae565b505050565b5b81811015612a0f57612a046000826129d8565b6001810190506129f1565b5050565b601f821115612a5457612a25816128f4565b612a2e84612909565b81016020851015612a3d578190505b612a51612a4985612909565b8301826129f0565b50505b505050565b600082821c905092915050565b6000612a7760001984600802612a59565b1980831691505092915050565b6000612a908383612a66565b9150826002028217905092915050565b612aa982611a8a565b67ffffffffffffffff811115612ac257612ac1611d87565b5b612acc825461208e565b612ad7828285612a13565b600060209050601f831160018114612b0a5760008415612af8578287015190505b612b028582612a84565b865550612b6a565b601f198416612b18866128f4565b60005b82811015612b4057848901518255600182019150602085019450602081019050612b1b565b86831015612b5d5784890151612b59601f891682612a66565b8355505b6001600288020188555050505b505050505050565b600081519050919050565b600082825260208201905092915050565b6000612b9982612b72565b612ba38185612b7d565b9350612bb3818560208601611aa6565b612bbc81611ad0565b840191505092915050565b6000608082019050612bdc6000830187611bd1565b612be96020830186611bd1565b612bf66040830185611ce7565b8181036060830152612c088184612b8e565b905095945050505050565b600081519050612c22816119fb565b92915050565b600060208284031215612c3e57612c3d6119c5565b5b6000612c4c84828501612c13565b91505092915050565b6000612c6082611b3c565b91507fffffffffffffffffffffffffffffffffffffffffffffffffffffffffffffffff8203612c9257612c91612589565b5b600182019050919050565b7f4e487b7100000000000000000000000000000000000000000000000000000000600052601260045260246000fd5b6000612cd782611b3c565b9150612ce283611b3c565b925082612cf257612cf1612c9d565b5b828204905092915050565b6000612d0882611b3c565b9150612d1383611b3c565b925082612d2357612d22612c9d565b5b828206905092915050565b7f4e487b7100000000000000000000000000000000000000000000000000000000600052603260045260246000fdfea2646970667358221220b93ec4c9cf8673c199870254f71b602887240fd2c2073f31a86ef70abc95008964736f6c63430008110033",
  "immutableReferences": {},
  "source": "//2.\r\n//ERC721 - Ethereum's Request for Comment is a smart contract - NFT created with ERC721 are unique and have unique ids \r\nimport \"@openzeppelin/contracts/token/ERC721/ERC721.sol\";\r\nimport \"@openzeppelin/contracts/utils/Counters.sol\";\r\n\r\n//Ownable - we use a function from here to make sure only the owner of that smart contract can access it\r\nimport \"@openzeppelin/contracts/access/Ownable.sol\";\r\nimport \"@openzeppelin/contracts/token/ERC721/extensions/ERC721URIStorage.sol\";\r\n\r\n//1. \r\npragma solidity >=0.4.16 < 0.9.0; //pragma solidity makes sure the version of your contract (packages/dependencies) is maintained\r\n\r\ncontract mintContract is ERC721URIStorage, Ownable{\r\n    //contract code\r\n    using Counters for Counters.Counter; //counters to create unique ids\r\n\r\n    Counters.Counter private tokenId; //by default the value will be 0\r\n\r\n    constructor() ERC721(\"MyNFT\", \"NFT\"){\r\n\r\n    }\r\n\r\n    //function to mint the NFT\r\n    function mintNFT(string memory tokenURI) public onlyOwner returns(uint256){\r\n\r\n        tokenId.increment(); //increments the id\r\n\r\n        //assign id to uint newId\r\n        uint256 newId = tokenId.current();\r\n\r\n        // _mint is a function - takes two params\r\n\r\n        _mint(msg.sender, newId); //msg.sender will have the mint address\r\n\r\n        _setTokenURI(newId, tokenURI); \r\n\r\n        return newId;\r\n\r\n        //ref node_modules\\@openzeppelin\\contracts\\token\\ERC721\\ERC721.sol openzeppelin does it for you\r\n\r\n    }\r\n}",
  "sourcePath": "C:\\Users\\Syeda Arshia Amina\\Desktop\\NFTSCCodeForIndia\\contracts\\miniContract.sol",
  "compiler": {
    "name": "solc",
    "version": "0.8.17+commit.8df45f5f.Emscripten.clang"
  },
  "schemaVersion": "3.4.10",
  "updatedAt": "2022-10-03T17:43:42.430Z",
  "networkType": "ethereum",
  "devdoc": {
    "kind": "dev",
    "methods": {
      "approve(address,uint256)": {
        "details": "See {IERC721-approve}."
      },
      "balanceOf(address)": {
        "details": "See {IERC721-balanceOf}."
      },
      "getApproved(uint256)": {
        "details": "See {IERC721-getApproved}."
      },
      "isApprovedForAll(address,address)": {
        "details": "See {IERC721-isApprovedForAll}."
      },
      "name()": {
        "details": "See {IERC721Metadata-name}."
      },
      "owner()": {
        "details": "Returns the address of the current owner."
      },
      "ownerOf(uint256)": {
        "details": "See {IERC721-ownerOf}."
      },
      "renounceOwnership()": {
        "details": "Leaves the contract without owner. It will not be possible to call `onlyOwner` functions anymore. Can only be called by the current owner. NOTE: Renouncing ownership will leave the contract without an owner, thereby removing any functionality that is only available to the owner."
      },
      "safeTransferFrom(address,address,uint256)": {
        "details": "See {IERC721-safeTransferFrom}."
      },
      "safeTransferFrom(address,address,uint256,bytes)": {
        "details": "See {IERC721-safeTransferFrom}."
      },
      "setApprovalForAll(address,bool)": {
        "details": "See {IERC721-setApprovalForAll}."
      },
      "supportsInterface(bytes4)": {
        "details": "See {IERC165-supportsInterface}."
      },
      "symbol()": {
        "details": "See {IERC721Metadata-symbol}."
      },
      "tokenURI(uint256)": {
        "details": "See {IERC721Metadata-tokenURI}."
      },
      "transferFrom(address,address,uint256)": {
        "details": "See {IERC721-transferFrom}."
      },
      "transferOwnership(address)": {
        "details": "Transfers ownership of the contract to a new account (`newOwner`). Can only be called by the current owner."
      }
    },
    "version": 1
  },
  "userdoc": {
    "kind": "user",
    "methods": {},
    "version": 1
  }
}